:100000000C9442010C947A010C947A010C947A01BC
:100010000C947A010C947A010C947A010C947A0174
:100020000C947A010C947A010C943B1C0C940F1DD7
:100030000C9464170C947A010C947A010C947A0154
:100040000C947A010C947A010C947A010C947A0144
:100050000C947A010C94DC170C947A010C947A01BC
:100060000C947A010C947A010C947A010C947A0124
:100070000C947A010C947A010C947A010C947A0114
:100080000C947A010C947A010C947A010C947A0104
:100090000C947A010C947A010C947A010C947A01F4
:1000A0000C947A010C947A010C947A0135001E00AC
:1000B0001F0020002100220023002400250026002C
:1000C00027002D002E0000002A0029002B00000030
:1000D00014001A000800150017001C0018000C007E
:1000E000120013002F00300000004A003900000009
:1000F00004001600070009000A000B000D000E00A6
:100100000F0033003400320028004D00E10064008D
:1001100000001D001B000600190005001100100062
:10012000360037003800E50052004600E000E300EA
:10013000E20000000000000000002C0000000000B1
:10014000E60000004C00500051004F000A0343003D
:1001500055003600350000001A03430061007000AE
:10016000730055006E006C006F0063006B0065004B
:10017000640000000403090409023B00020100A01E
:10018000FA09040000010301010009211101000125
:10019000224400070581030800010904010001034E
:1001A000000000092111010001227B0007058203E4
:1001B0002000011201000200000008554365000103
:1001C000000102000105010902A10185020901A146
:1001D00000050919012908150025019508750181F7
:1001E000020501093009311581257F9502750881C5
:1001F0000609381581257F950175088106050C0AC9
:1002000038021581257F950175088106C0C005015A
:100210000980A101850319012AB700150126B7003D
:10022000950175108100C0050C0901A10185041913
:10023000012AA002150126A002950175108100C0B7
:1002400005010906A101050719E029E715002501A7
:10025000950875018102950175088101050719004E
:1002600029FF150026FF009506750881000508196D
:100270000129051500250195057501910295017566
:10028000039101C011241FBECFEFDAE0DEBFCDBF66
:1002900004B603FE18C08091890290918A02A09151
:1002A0008B02B0918C028730904BA740B04B59F431
:1002B0001092890210928A0210928B0210928C0284
:1002C000E0E0F8E3099511E0A0E0B1E0E8E8FFE341
:1002D00002C005900D92A03AB107D9F722E0A0EA3A
:1002E000B1E001C01D92A938B207E1F70E944B119D
:1002F0000C94831F0C940000811111C0653078F4B8
:10030000403168F480E1689FF0011124E40FF11D91
:10031000EE0FFF1FE455FF4F85919491089581E002
:1003200090E008950E947C01089581E008950E9464
:10033000950108950E949501089581E008950E9415
:10034000950108950E94950108950E94A2010895C3
:10035000089508950E94A801089508950895A6E0BB
:10036000B0E0E5EBF1E00C94DF1E49835A839E83F5
:100370003091A70189819A8131111AC03E813323BE
:1003800099F0222389F00E94F207182F682F8981A3
:100390009A810E94CF0769817A81812F0E94E40EA1
:1003A0002696E3E00C94FB1E0E94E007182FF3CF83
:1003B0000E94F20769817A81F1CFFC01262F4081EA
:1003C000518162817381848195810E94AF0108957A
:1003D000CF93DF93EC0161E00E94DD01BE010E943A
:1003E0009701882359F061E0CE010E94DD01BE0132
:1003F0000E949A018170DF91CF91089580E0FACF39
:100400000F931F93CF93DF93EC0160E00E94DD0117
:100410008C01BE010E94A901BE01C8010E94AA016F
:10042000DF91CF911F910F91089521E030E0A90154
:1004300002C0440F551F8A95E2F7CA010E94F106D7
:100440000895CF93C82F81E090E00C2E02C0880F52
:10045000991F0A94E2F70E942E0C8C2F0E9415021D
:10046000CF91089581E008950E94320208950E947C
:1004700032020895CF93C82F0E94A4068C2F0E94A9
:1004800034028C2F0E9437022FEF84E39CE021502E
:1004900080409040E1F700C00000CF91089581E0D6
:1004A0000E943A020E940018089580E00E943A02D9
:1004B0000E94241808950F931F93CF93DF938C010C
:1004C00061E00E94DD01EC01B8010E949F018111F1
:1004D00006C080E0DF91CF911F910F910895B80180
:1004E000CE010E94A5018823A1F3B801CE010E948C
:1004F0007415882371F3B801CE010E94B0118823CE
:1005000041F3B801CE010E948611882311F3B8018E
:10051000CE010E94E80F8823E1F2F801858188234B
:1005200061F0C330FCE7DF07E9F058F4C115ECE7F0
:10053000DE07A9F0C130DC47B9F0C8010E949D0177
:10054000C9CFCB358CE7D807A9F0CC35ECE7DE076F
:1005500071F0CA35DC4789F70E94090CEECF0E9482
:100560004F02B7CF0E94110C0E945502B2CF0E94D9
:10057000FF0BE3CF0E940D0CE0CF0E94AD010E9463
:1005800036170E94E10208950E94E5020E94AE0122
:100590000E943B17089581E008950895CF93DF935B
:1005A000D82F0E94CB02C82F882319F08D2F0E94CC
:1005B000CD028C2FDF91CF91089508950E94CE0235
:1005C000089580E00E94DE0208950E94BD150E94F9
:1005D000DE020895CF930E94BD15C82F8091A2011D
:1005E0008C1779F0C093A2010E94D0176093A301E9
:1005F0007093A4018093A5019093A6018C2F0E9473
:10060000DE02CF910895ADE0B0E0E9E0F3E00C94B4
:10061000E01E488759876A877B878C879D87911161
:100620000E943F0B1F8286E0FE013896DE01119684
:1006300001900D928A95E1F78D8181110DC029817C
:100640003A814B815C816D817E818F810E94890A14
:100650002D96E2E00C94FC1ECE0101960E94E8016A
:100660008111EDCFF5CFFC012481213021F480816F
:1006700091810E9424080895662329F00E94111395
:100680000E94E41308950E946B13FACFCF93C82FF2
:100690008823C9F08238C9F40E94CA1581FD13C0AD
:1006A00089E30E9480160E94AE0B2FEF87EE93E045
:1006B000215080409040E1F700C0000089E30E9493
:1006C00088160E94AE0BCF9108958338A1F40E9442
:1006D000CA1580FDF8CF83E50E9480160E94AE0BFC
:1006E0002FEF81EE94E0215080409040E1F700C070
:1006F000000083E5E4CF8438A1F40E94CA1582FD8E
:10070000E2CF87E40E9480160E94AE0B2FEF81EEAD
:1007100094E0215080409040E1F700C0000087E461
:10072000CECF8CEF8C0F813A70F48C2F0E9445163F
:10073000882329F08C2F0E9488160E94AE0B8C2FE4
:100740000E948016BECF80E28C0F883048F4C770BC
:1007500081E001C0880FCA95EAF70E94220BB1CF51
:10076000EBE5EC0FE33040F4F0E0E25BFE4F80811C
:1007700090E00E94E615A7CFE8E5EC0FEB3150F4CE
:10078000F0E0EE0FFF1FE85EFE4F808191810E9436
:100790000B1699CF83E38C0F833108F094CF61E07F
:1007A0008C2F0E943C038FCF882309F456C08238D7
:1007B00079F40E94CA1581FF50C089E30E94801617
:1007C0000E94AE0B89E30E9488160E94AE0B08952A
:1007D000833859F40E94CA1580FF3FC083E50E9408
:1007E00080160E94AE0B83E5EECF843859F40E9448
:1007F000CA1582FF32C087E40E9480160E94AE0BA9
:1008000087E4E1CF9CEF980F913AE8F290E2980FDD
:10081000983050F4877091E001C0990F8A95EAF7FB
:10082000892F0E94280BD1CF9BE5980F933028F495
:1008300090E080E00E94E615089598E5980F9B31BE
:1008400028F490E080E00E940B16089593E3980F3F
:10085000933118F460E00E943C0308951F93CF93F6
:10086000DF93182FEB010E944603209739F4812F64
:100870000E94D403DF91CF911F9108958FE99FE0EB
:100880000197F1F700C000002197EFCF70E060E022
:10089000893311F460E570E00E942E0408958823E6
:1008A00021F00E94220B0E94AE0B0895882321F0B4
:1008B0000E94280B0E94AE0B0895B0E0A0E0E3E692
:1008C000F4E00C94D91E6C01D62FC72FFC011581C2
:1008D000068102950F700E94180BE82E8823F9F00C
:1008E000E12E1123E1F08C2F807F803461F080E2D3
:1008F0008D0F883008F18C2F807E803221F4D23029
:10090000D8F00023C9F08091630282FF15C082E015
:100910000E94D30B0E94180B91E0E82EE926BC2E12
:10092000B2949FE0B922FBE0FB15B8F1EB2DF0E0AB
:10093000EB57F04E0C94CA1EE12CF1CF0C2F0F7028
:10094000C07F11F00295007F112399F0002359F028
:1009500080E28D0F883010F0D11107C0802F0E94E7
:10096000220B0E94AE0B8D2F48C0802F0E94320BAD
:10097000F8CF8D2F0E94D403002379F080E28D0FF1
:10098000883010F0D11104C0802F0E94280B03C0C2
:10099000802F0E94380B0E94AE0BEB2DE850FF0B0E
:1009A000349708F06BC10E94BD150E94DE02CDB7DE
:1009B000DEB7E9E00C94F51E2C2F2F70F22EC07FCD
:1009C000C03219F0F29480EFF822DD2341F0D130EB
:1009D000C9F1112309F443C00023E9F0C4CF809189
:1009E000630282FD14C0112359F0FF2029F08F2DDE
:1009F0000E94220B0E94AE0B80E00E944603CDCFE6
:100A000080E00E94D403FF2041F28F2DBECF11233E
:100A100069F0011104C08F2D0E944F04BECF013038
:100A200009F0BBCF8F2D0E94560BB7CF0111B5CF68
:100A30008F2D0E9456048F2D0E94620B8F2D0E94D5
:100A4000460BABCF112321F0063008F0A6CFE3CF41
:100A5000053008F0A2CF8F2D0E9456049ECF0023B0
:100A6000D1F3D93349F43FEF87EE93E03150804022
:100A70009040E1F700C000008D2F0E94D4038DCF7D
:100A80008C2F86958695837069F0813009F085CF2B
:100A90008D2F9C2F9370111102C080E090E00E9476
:100AA0000B167BCF8D2F9C2F9370111102C080E00D
:100AB00090E00E94E61571CF612F8D2F0E943C03BC
:100AC0006CCF8C2F8370A1F5111167CF4D2F4295FC
:100AD00046954770440F440F2D2F2F7030E0042EA1
:100AE00002C0220F331F0A94E2F790E080E0D4FFA7
:100AF00009C08FE090E002C0880F991F4A95E2F785
:100B000080959095C695C695C370822B932BC23065
:100B100049F058F4C13019F00E94FD063ECF0E9402
:100B2000F4063BCF0E94060738CF0E94F10635CF6E
:100B30008695112311F08C2F8170882309F42DCF15
:100B40004D2F429546954770440F440F2D2F2F701F
:100B500030E0042E02C0220F331F0A94E2F790E027
:100B600080E0D4FF09C08FE090E002C0880F991F99
:100B70004A95E2F780959095C695C695C370822BED
:100B8000932BC23049F058F4C13019F00E94680725
:100B900004CF0E945F0701CF0E947107FECE0E9422
:100BA0001507FBCECF70112329F08C2F0E942D0743
:100BB0008D2F32CF8D2F0E9456048C2F0E943D071F
:100BC000ECCED23F41F160F4D03FB9F0D13F81F09B
:100BD000112309F443C00111C6CE8C2F8F711FC0A1
:100BE000D33F01F1D43FA1F78091630282FD24C07D
:100BF0008C2F8F71112311F312C0112341F0053096
:100C000008F0CBCE8C2F8F710E944F07C6CE0630D6
:100C100008F0C3CEF7CF8C2F8F711111CFCF0E9468
:100C20002D07BBCE112329F08C2F8F710E94210735
:100C3000B4CE0E941C07B1CE112331F063E08C2F9B
:100C40008F710E94B50BA9CE81E00E94D30B0230B8
:100C500008F4A3CE82E00E94D30B9FCE002359F06C
:100C6000D93309F009CFEFEFF7EE23E0E150F04080
:100C70002040E1F7FFCE8C2F8F71A0CFEE2009F43A
:100C800096CE0E94140B80FD92CEF60115820E9432
:100C90000E0B0E942D07C6010E946B060E940E0BD0
:100CA0000E943D0784CE0F931F93CF93DF93EC01F7
:100CB000688179818D810E942F088C010E947A07BA
:100CC0000E94F006B801CE010E945D04DF91CF9131
:100CD0001F910F910895CF93DF93EC018C818823AE
:100CE00099F0CE010E945B02811111C00E94180B85
:100CF000882351F08D81882339F08091630282FF2F
:100D000003C082E00E94D30BDF91CF910895CE0102
:100D10000E945306CE010E940002F6CF90E080E0D0
:100D20000E94E61590E080E00E940B160E943F0BA7
:100D30000E94AE0B0E9400140E94E41308950E94CA
:100D400090160E948E0608950E942F0B0E949F0607
:100D5000089592959F70963091F058F4925F9F702D
:100D6000923058F4803F19F030F4883E30F481E03E
:100D700008959A5FF4CF843FD1F380E00895883ED0
:100D8000B0F3813FD1F7F3CFFC012481222339F066
:100D9000808191810E9424080E94A906089580E024
:100DA0000895A6E0B0E0E7EDF6E00C94E01E26968C
:100DB000E2E00C94FC1EA7E0B0E0E1EEF6E00C945B
:100DC000E01E2796E2E00C94FC1E08950E94E506C2
:100DD00008950E94E6069093D3018093D20108956E
:100DE00008950E94E90608952091D2013091D3011F
:100DF000822B932B0E94E90608952091D201309115
:100E0000D301822393230E94E90608952091D20101
:100E10003091D301822793270E94E90608950E940A
:100E2000E50608950E940F0708950E941207909307
:100E3000D1018093D001089590E080E00E941507D1
:100E4000089521E030E0A90102C0440F551F8A95A2
:100E5000E2F7CA010E941507089521E030E002C0C0
:100E6000220F331F8A95E2F78091D0019091D10132
:100E7000822B932B0E941507089521E030E002C0D9
:100E8000220F331F8A95E2F7209530958091D0018B
:100E90009091D101822393230E941507089521E0A8
:100EA00030E002C0220F331F8A95E2F78091D00113
:100EB0009091D101822793270E94150708952091D0
:100EC000D0013091D101822B932B0E9415070895F8
:100ED0002091D0013091D101822393230E941507E4
:100EE00008952091D0013091D101822793270E944B
:100EF000150708950895262F277091E001C0990FD6
:100F00002A95EAF723E0769567952A95E1F7660F2B
:100F1000771F660F771FFA01E60FF71F50E040E0DA
:100F2000682F70E08191DF0111979B01042E02C0B0
:100F3000369527950A94E2F72170219528272923D1
:100F400028272C934F5F5F4F4430510559F7089580
:100F5000A82FA77023E0969587952A95E1F7880F2B
:100F6000991F880F991FFB01E80FF91F50E040E01F
:100F700080E0219130E00A2E02C0369527950A9430
:100F8000E2F721703327042E01C0220F0A94EAF7FA
:100F9000822B4F5F5F4F4430510559F70895262F3C
:100FA000953068F4803158F430E1939FB0011124FA
:100FB000680F711D48EA51E0822F0E947B07089557
:100FC000953070F4803160F440E1949F90011124D9
:100FD00068EA71E0820F932F911D0E94A80708957F
:100FE00080E00895B0E0A0E0E8EFF7E00C94D91EAF
:100FF0007C010091D0011091D1018091D20190919A
:10100000D301082B192BCFE0D0E0CC24C394D12CF2
:10101000BC2EC6010C2E02C0880F991F0A94E2F75D
:1010200080239123892B49F4219790F7B12C8B2DA4
:10103000CDB7DEB7E9E00C94F51EB7018C2F0E9406
:10104000F00E019789F3F3CFCF93DF93EC010E9469
:10105000F207BE010E94F00EDF91CF9108951F9319
:10106000CF93DF93EB019091A701992339F0CB0146
:101070000E942408DF91CF911F910895882369F081
:10108000CB010E94F207182F682FCE010E94CF07D4
:10109000BE01812F0E94F00EEDCFCB010E94E00730
:1010A000182FF6CF1F93CF93DF93C091D40117E091
:1010B0008091D5018C1304C0DF91CF911F910895C9
:1010C000D0E01C9FF0011D9FF00D1124EA52FE4F4D
:1010D00020813181428153816481758186810E94A2
:1010E000DB062196C770E4CF20910E0230910F02EB
:1010F00040911002509111026091120270911302FE
:10110000809114020E94DB060895CF93DF938091B3
:101110001402807F09F04DC080911302882309F4E6
:1011200048C0E091D4015091D501C0910F02D091F7
:101130000E02609110027091110247E05E17C9F132
:101140008E2F90E0E49FF0011124EA52FE4F24819B
:10115000222391F1489FF001499FF00D1124DF01F6
:10116000AA52BE4F11962C9111972C1325C02C9189
:101170002D1322C015962C91159721111DC0129682
:101180002D913C91261B370B283C3105A8F480910A
:1011900014028F70806180931402E452FE4F8081AC
:1011A0008F70806180838EE092E00E946B060E94C7
:1011B0005208DF91CF910895FC013196E770BECFC0
:1011C000482F2091D4019091D50157E0291302C0F6
:1011D00080E0089530E0529FF001539FF00D1124FC
:1011E000EA52FE4F8181681306C08081481303C014
:1011F00085818111EECF2F5F3F4F2770E7CFA4E1AC
:10120000B0E0E5E0F9E00C94D61E8C0186E0F80130
:10121000DE011F9601900D928A95E1F7F801848115
:10122000E5809EE0A92E92E0B92E909112029111D4
:101230001FC08823D1F0EE20A9F0C8010E94C40687
:10124000F82E882379F087E0F801D50101900D92FE
:101250008A95E1F7C5010E9433030E9485080E9428
:1012600074085FC0C8010E946B06FF24F39459C044
:10127000C080D18082809380F09013022091100270
:1012800030911102A401421B530BFF2009F4F9C055
:10129000483C510508F0A7C0882309F442C090914A
:1012A0000F0280911402282F207F09F05CC09D114D
:1012B00016C090910E02C91212C0E1104EC08F707C
:1012C0008061809314020E9474088EE092E00E9474
:1012D0006B0680911402F8018683F12C22C0E11084
:1012E0003CC06D2D8C2D0E94E0086D2D8C2D0E9430
:1012F000E008E82E8111F1CFCF86D88A8F859889B2
:101300000E942408292F22952F70243078F49F7092
:101310002230A8F09923B9F0F8019681907F99F4D2
:10132000FE2C8F2D6496ECE00C94F21E2A5F2F7039
:10133000223068F0C8010E946B06EF2CF1CF992390
:1013400011F0882369F3805E883050F3F3CF803F3B
:1013500038F3815F833070F7E3CF809114028160AE
:1013600080931402BACF9D1113C090910E02C9123E
:101370000FC0E1100DC08683C8010E946B0687E094
:10138000F801AEE0B2E001900D928A95E1F767CFE7
:10139000C8010E94C406882309F464CFEE2009F432
:1013A00061CF80911402803288F020910E0230913A
:1013B0000F02398728879B868A86909112029C8724
:1013C0001D868E87CE0108960E946B0687E0F80185
:1013D000AEE0B2E001900D928A95E1F70E94850897
:1013E0000E94740842CF90911402292F207FA1F40B
:1013F000682D9A8A898AA6017A899E2D0E94D10633
:101400008EE092E00E946B0687E0F50111928A95CA
:10141000E9F70E94740861CF882309F482CF809194
:101420000F028D1110C080910E02C8120CC0E11085
:101430000AC09683C8010E946B0687E0F5011192ED
:101440008A95E9F76ECFC8010E94C406882309F483
:1014500009CFEE2009F406CF80911402803208F4FF
:10146000B5CF20910E0230910F023A8329839C82DE
:101470008B82909112029D831E828F83CE010196F2
:10148000A3CF483C5105B8F5882309F4EECEFE2CD5
:10149000EE2009F4E7CE80910F028D111EC08091DD
:1014A0000E02C8121AC08091140280FD0DC0982F40
:1014B000907F51F08683903F09F45ECF982F907F04
:1014C000905F8F70892B57CF87E0F801AEE0B2E0D4
:1014D00001900D928A95E1F724CFC8010E94C406BD
:1014E000811174CF80911402816080931402C8012D
:1014F0000E946B0616CF682D9A8A898AA6017A897E
:101500009E2D0E94D10687E0F50111928A95E9F798
:10151000A6CEAEE0B0E0EFE8FAE00C94DF1E28873C
:1015200039874A875B876C877D878E87CE010896CF
:101530000E94FF088823B1F06C85662341F028855E
:1015400039854A855B857D858E850E94DB0617E09F
:101550008091D4019091D50189133DC02E96E3E08E
:101560000C94FB1E87E0FE013896DE011196019077
:101570000D928A95E1F78C85882349F32091D50156
:1015800030E0C9010196877099274091D40148172E
:10159000190699F097E0929FD001939FB00D112406
:1015A000AA52BE4FFE01319601900D929A95E1F735
:1015B0008093D5010E945208CACF0E94A4061092BF
:1015C000D5011092D40187E0EEE0F2E0DF011D9238
:1015D0008A95E9F7BCCF819FC00111248A529E4FA2
:1015E0000E94FF08882309F4B9CFE091D4011E9F1F
:1015F000F0011124EA52FE4F208131814281538152
:101600006481758186810E94DB068091D40190E01F
:101610000196877099278093D4019ACF80911D02FB
:10162000869586958695089580911D028770089508
:1016300090911D02977081E009F480E008958091F7
:101640002902089590912902892B809329020895F7
:1016500080959091290298239093290208951092E1
:101660002902089590912802892B809328020895D9
:1016700080959091280298239093280208951092C3
:101680002802089508950E94420B089590911E0229
:10169000292F282331F08095892380931E020E94F0
:1016A000430B089508950E94520B089590911F02D4
:1016B000292F2823281729F0982B90931F020E9486
:1016C000530B089590911F02292F282331F0809504
:1016D000892380931F020E94530B089580911F025B
:1016E000882329F010921F0280E00E94530B089576
:1016F0000F931F93CF93DF9300910001109101018D
:10170000C091290280912802C82B80911F02882352
:1017100031F0C82B0E94301681110E946E0BF80127
:10172000C083C0910001D091010148E050E065E123
:1017300072E0CE010E941B1F892B59F088E0FE0148
:10174000A5E1B2E001900D928A95E1F7CE010E94E9
:10175000CD15DF91CF911F910F9108950E94780BC5
:10176000089508950E94B10B08959091630292FF2D
:1017700011C098E0899F90011124622B60931D0293
:101780000E942D0780911D028695869586950E9460
:10179000B20B08950E942D07089510921D0280E05B
:1017A0000E94B20B089590911D0280958923809329
:1017B0001D02282F277069F4891759F09091630250
:1017C00092FF07C08695869586950E943D070E94E8
:1017D000CD0B08959091630292FB222720F92817E0
:1017E00069F080FB92F9909363028091620290917C
:1017F00063020E94390C82E00E94D30B089580910D
:10180000630282FB882780F991E089270E94EA0B16
:10181000089581E00E94EA0B089580E00E94EA0B9F
:1018200008956FEF7FEF90E080E00E946D1F0895B4
:1018300090E080E00E94391F21E0853E9E4F09F034
:1018400020E0822F089582E090E00E94311F0895E9
:1018500083E090E00E94311F90E00895682F83E0BC
:1018600090E00E944F1F089584E090E00E94391F8D
:101870000895BC0184E090E00E946D1F0895AB01C3
:10188000BC018FE090E00E94611F0895AB01BC0194
:1018900083E190E00E94611F089560E070E0CB0159
:1018A0000E94460C089560E070E0CB010E943F0C5E
:1018B0000E944D0C0895A8E0B0E0E1E6FCE00C9435
:1018C000E01E65EE7EEF90E080E00E946D1F60E01C
:1018D00082E090E00E944F1F81E090E09093D3015E
:1018E0008093D2010E942E0C60E074E184E090E0CD
:1018F0000E946D1F60E086E090E00E944F1F60E054
:1019000087E090E00E944F1F40E050E0BA0188E07D
:1019100090E00E94611F60E083E290E00E944F1F10
:1019200060E08CE090E00E944F1F60E08DE090E06E
:101930000E944F1F19821A821B821C821D821E82E6
:101940001F82188648E050E067E170E0CE01019602
:101950000E943F1F40E050E0BA018FE190E00E94FA
:10196000611F0E94530C2896E2E00C94FC1E0E941A
:101970005B0C0895682F8EE090E00E944F1F089541
:10198000A6E0B0E0E6ECFCE00C94DE1E0E94C4177A
:101990008C0180912A0290912B028017910781F08F
:1019A00019821A820E94C417682F49815A81792F9F
:1019B00080E090E00E94030310932B0200932A0220
:1019C0002696E4E00C94FA1E0E94D01760933A0227
:1019D00070933B0280933C0290933D0260933602E9
:1019E00070933702809338029093390208950895D6
:1019F00008950E94F70C089508950E94FC0C0E941F
:101A0000F90C089508950E94020D089508950E940A
:101A1000060D0E94030D089586EE9FE00E9460115E
:101A20000E94F80C0E94FD0C089581E008950E9428
:101A3000150D08950E94150D0895089508950895AF
:101A40000E941D0D0E941E0D0E941F0D08950E94F0
:101A5000180C811102C00E94B70C0E94230C8093C5
:101A60003E020E94340C90936302809362020E94B3
:101A700083110E94280C0E94F1068091D001909160
:101A8000D1010E94120708950E94BB170E94BB104B
:101A90000E94270D0E94DD020E94070D0895A6E016
:101AA000B0E0E5E5FDE00C94D41E0E94170D811115
:101AB0000AC00E94C00C0E9422140E94EA022696CC
:101AC000EEE00C94F01E0E94D1102CE2822E22E057
:101AD000922E640110E0F601E190F1906F01812FE8
:101AE0000E9402101F5F153009F44BC0E816F9067A
:101AF00091F380913E0281FD0E940B100E941A0D0D
:101B0000782E10E066246394812F0E9402107C01DD
:101B1000F401A190B1904F018A159B0561F100E09D
:101B2000CC24C394D12CAE24BF24C5018C219D218B
:101B3000892BC1F07720B1F009831A830E94C41762
:101B40009C838B836D8221E0C7018C219D21892B91
:101B500009F420E049815A816B817C818D81922F2B
:101B60000E9403030F5FCC0CDD1C0031F1F6F40181
:101B70003297F182E0821F5F153031F60E94E40C4B
:101B80009ACFE816F90609F0B4CF93CF1F93CF93FD
:101B9000DF930E94F50EEC01C11580E5D807F0F542
:101BA000C11580E4D80708F09CC0C03ED10520F5DF
:101BB000CD3CD10508F082C0C83AD10578F4C53AC9
:101BC000D10508F073C0C130D10519F1209709F192
:101BD000C430D105F0F4D0E0C0E01BC0C33CD10557
:101BE000D0F7C85AD0E0CC0FDD1FCF5ADE4F099096
:101BF000D881C02DD4640DC0C11580E2D80708F08B
:101C0000D1C0C11581E0D80708F05AC0C83ED1053F
:101C100010F7CE01DF91CF911F910895C03682E574
:101C2000D80718F5C03482E5D80708F06BC0C03279
:101C300082E5D80708F05FC0C11582E5D80708F42F
:101C400097C02C2F2695269580E2289F900111247D
:101C50008C2F8370C1E0D0E002C0CC0FDD1F8A95CD
:101C6000E2F7C22BD32BDD68D4CFC03A82E5D80788
:101C700060F4C03882E5D80708F459C0CF71D0E0CD
:101C8000DC2FCC27C46FD06AC4CFC03C82E5D80714
:101C900008F462C0C03E82E5D80708F09CCFDC2F74
:101CA000CC27CC27DF71C06FD06AB3CFC55AD0E044
:101CB000C957DE4FC881D0E0D064ABCFD065A9CF83
:101CC0008D2F0E94970F182FCE0199270E94F50E95
:101CD000C12FD0E0DC2FCC27CC27DF71C82BD92B2C
:101CE00098CFCE0199270E94F50ECC27DF70C82B24
:101CF000D92BD06A8ECFCF71D0E0DC2FCC27C16F2B
:101D0000D06A87CF2C2F26952695277080E2289FB2
:101D1000900111248C2F8370C1E0D0E002C0CC0F61
:101D2000DD1F8A95E2F7C22BD32BDC6872CF2C2FF4
:101D300026952695277080E2289F900111248C2FEC
:101D40008370C1E0D0E002C0CC0FDD1F8A95E2F7BE
:101D5000C22BD32BDA685DCF8C2F8F710E94970F27
:101D6000C82FD0E0DC2FCC27CC27DF71D06251CF39
:101D70008C2F8F710E94970F55E0D695C7955A9575
:101D8000E1F7CF70D0E0DC2FCC27282F30E084FFA4
:101D900005C044E0220F331F4A95E1F7C22BD32B35
:101DA000D06937CF8D2F8F710E94970F182FCE01DA
:101DB00099270E94F50EC12FD0E0DC2FCC27CC272D
:101DC000DF71C82BD92BD2CF462F753030F460315C
:101DD00020F4672F0E949201089590E080E008951A
:101DE0000E94E40E0E94C60D089582389105B9F153
:101DF000B0F48133910509F47DC048F4893291052E
:101E000009F46DC08A32910509F47BC008958533C9
:101E1000910509F45FC08933910509F10895833E66
:101E20009105D9F138F4803E910529F1823E910562
:101E300079F10895863E9105D9F1873E910509F41F
:101E40003EC0843E910541F52091630221FF24C0EC
:101E50008091620284FD19C087EE90E00895209180
:101E60006202237009F05AC02091630223FF14C05C
:101E700089E290E008952091620220FD38C03091FF
:101E8000630230FF09C024FF43C090E080E0089562
:101E90002091620222FDF7CF08952091620222FD77
:101EA0003AC03091630230FD39C024FFF5CFEDCF49
:101EB0002091620223FFF0CF24FDE7CFCDCF209108
:101EC000620223FD2EC03091630231FFEECF84EE1B
:101ED00090E008952091620225FFDECFC9CF2091C6
:101EE000620225FD21C02091630223FFD5CF89E343
:101EF00090E0D2CF2091620226FFCECF8AE290E01E
:101F000008952091620226FFC7CF81E390E00895F3
:101F100083EE90E0089582EE90E0089580EE90E0E8
:101F2000089586EE90E0089585E390E008959091FD
:101F3000620292FF10C041E0282F2471243009F082
:101F400040E031E0282F2871283009F030E04317B5
:101F500011F02CE0822793FF10C041E0282F24715C
:101F6000243109F040E031E0282F2871283109F0B0
:101F700030E0431711F02CE082273091630230FFEC
:101F800010C051E0282F2171213009F050E041E0CC
:101F9000282F2871283009F040E0541711F029E06B
:101FA000822731FF10C041E0282F2171213109F033
:101FB00040E031E0282F2871283109F030E0431744
:101FC00011F029E0822794FD877E089580E008952E
:101FD000CF939C01205E3245C1E02032310538F4B8
:101FE000FB01C581C11103C08F710E9421028C2F9A
:101FF000CF91089508950E94FA0F089508950E94C0
:10200000FE0F0895E82FF0E0EE0FFF1FE259FD4F9D
:10201000808191810895089580EA8A95F1F7089565
:1020200000C008950E940C100895F894E82FE295DE
:10203000EF70F0E031A1282F2F7081E090E001C017
:10204000880F2A95EAF7982F9095932391A392A150
:10205000892B82A3789408950F931F93CF93DF93D6
:10206000CAE9D1E089918F3F11F00E94151081E0FB
:10207000CF39D807B9F7CAE8D1E00AE911E0899168
:102080008F3F11F00E9415100C171D07C1F7DF914B
:10209000CF911F910F910895AF92BF92DF92EF926F
:1020A000FF920F931F93CF93DF938C01D62EC62FF1
:1020B000D0E0CE0186569E4F7C01FC0120812F3F4F
:1020C00009F44CC0F894E22FE295EF70F0E031A1F2
:1020D0002F7081E090E001C0880F2A95EAF7932FD6
:1020E000982B91A392A18095892382A378940E9432
:1020F0001010EAE8F1E041E050E0B12CA12C219170
:102100002F3FB1F1A22FA295AF70B0E090968C91C5
:1021100090E02F7002C0959587952A95E2F780FD93
:1021200027C0CA01A82AB92A440F551F81E0EA39FD
:10213000F80729F7F70180818F3F11F00E941510F1
:1021400061E0A114B10409F460E08D2D0E94121029
:10215000CC0FDD1FC00FD11FB982A882DF91CF91B4
:102160001F910F91FF90EF90DF90BF90AF90089577
:1021700090E080E0D7CF0E942C108AE0EEE6F2E0FB
:10218000DF01982F1D929A95E9F7E4E6F2E0DF016E
:102190001D928A95E9F785E00E940C110E94FB0FC1
:1021A0000895AAE0B0E0E7EDF0E10C94DD1E8E01A9
:1021B0000F5F1F4F8AE0F80111928A95E9F7F12C21
:1021C0006F2DC8010E944C10F394F5E0FF12F8CF78
:1021D0004AE050E0B80184E692E00E941B1F21E033
:1021E000009709F420E0892B41F08AE0F801A4E689
:1021F000B2E001900D928A95E1F745E06EE672E05B
:1022000084E692E00E940D11182F0E94FF0F812F8B
:102210002A96E5E00C94F91E0895B0E0A0E0E3E111
:10222000F1E10C94DA1E6C017B01042FC22F2223F2
:1022300079F081E0809341020E94C417909340029C
:1022400080933F0280E0CDB7DEB7E8E00C94F61E45
:10225000D0914102DD23B1F380913F029091400281
:102260000E945317059770F310E0000F111FA8018B
:10227000B601C7010E941B1F892B31F0A801B601CE
:10228000C7010E94281FCD2F109241028C2FDBCF57
:102290000E944F0D08950E945D170E9472190E94BE
:1022A0000C0D0E948C190E94440D0E9499190E94E5
:1022B0009E190E9448110E94B8190E94200DF7CF64
:1022C0009093A1018093A00108950E94110C08959C
:1022D00080E00E940210817008950E94D1102FEFBB
:1022E00086E791E0215080409040E1F700C0000077
:1022F0000E94D1100E946811882321F00E9465116C
:102300000E94001808950E946D110895CF93DF93E5
:10231000EB0186319C4711F50E941F0B9D8199238B
:1023200099F08A7A91E009F490E090934202811149
:1023300009C089E20E9480160E94AE0B80E0DF9106
:10234000CF91089585E3F6CF80914202811104C0B8
:1023500089E20E948816F0CF85E3FBCF81E0EFCFC2
:10236000CF93DF93EC01FB018581882309F4D2C070
:102370009E0130572332310508F0B2C00E94340C60
:102380009093630280936202FE01E150F047E232D3
:10239000F10520F4EF56F04E0C94CA1E80916202B3
:1023A00081608093620293C0809163028860809311
:1023B00063028DC0809162028260F3CF80916202DD
:1023C0008460EFCF809162028860EBCF80916302DE
:1023D0008160EDCF809163028260E9CF80916202DB
:1023E0008061DFCF809162028062DBCF80916202E8
:1023F0008064D7CF0E94A406809162028068D1CF0A
:10240000809162028C60CDCF809163028360CFCFD8
:10241000809162028E7FC5CF80916302877FC7CF94
:10242000809162028D7FBDCF809162028B7FB9CF98
:1024300080916202877FB5CF809163028E7FB7CF94
:10244000809163028D7FB3CF809162028F7EA9CF8E
:10245000809162028F7DA5CF809162028F7BA1CF98
:102460000E94A406809162028F779BCF80916202C6
:10247000837F97CF809163028C7F99CF8091620296
:1024800082FB992790F921E0922790FB82F990FB3B
:1024900083F987CF80916302982F909591708E7FFA
:1024A000892B90FB81F983CF90916202892F8F7BDA
:1024B00096FF806476CF0E94A40690916202892FD5
:1024C00097FB87F980586DCF81E00E94BA0C80910C
:1024D0006202909163020E94390C0E94A40680E07F
:1024E000DF91CF91089580E0F0CF90916202892F23
:1024F0008F7E94FF806155CF90916202892F8E7FED
:1025000090FF81604ECF90916302892F877F93FF68
:1025100088604DCF81E0E4CF282F35EB2303C00145
:10252000112497FF04C080589109892F089580587D
:102530009F4FFBCF8091490280FF0DC06091070142
:1025400070E0660F771F6038710570F561157105D1
:1025500069F1862F089581FF07C06091070184E02B
:10256000689FB0011124EFCF6091070182FD0AC07E
:10257000809148028823A9F020910601609107010B
:10258000821710F088E0ECCF869FC001112433E061
:10259000880F991F3A95E1F7622F70E00E94B61EEE
:1025A000D2CF68E070E0D5CF8FE7089581E008953D
:1025B0008091490280FF0CC06091030170E0759525
:1025C0006795759567956115710549F1862F089591
:1025D00081FF06C06091030170E075956795F3CFA8
:1025E0006091030182FD0BC0909147029923A1F0F5
:1025F0006091020180910301961738F0682F70E016
:102600006038710500F38FE70895899FC001112498
:1026100070E00E94B61EF4CF61E070E0D7CF81E099
:1026200008958D3C31F40E949A12819580934D0259
:1026300008958E3C19F40E949A12F8CF8F3C31F421
:102640000E949A12819580934C020895803D19F45E
:102650000E949A12F8CF893D29F40E94D8128093E3
:102660004E0208958A3D21F40E94D8128195F7CF39
:102670008B3D31F40E94D812819580934F020895CA
:102680008C3D19F40E94D812F8CF9FE2980F983031
:1026900070F4815D990B21E030E001C0220F8A9532
:1026A000EAF780914B02822B80934B0208958D3D77
:1026B00031F48091490281608093490208958E3DF2
:1026C00021F4809149028260F7CF8F3DB9F7809164
:1026D00049028460F1CF40914C028D3C59F48091C5
:1026E0004D0287FF0DC010924D0241110BC0109298
:1026F000480208C08E3C81F480914D0218169CF36C
:10270000442381F080914E0290914F02892B09F071
:102710005AC01092470208958F3C49F447FFF0CF0A
:1027200010924C0280914D028111ECCFE0CF803DA0
:1027300019F41416ACF3E4CF90914E02893D29F4BC
:102740001916F4F610924E02DBCF8A3D19F497FF6A
:10275000D7CFF8CF90914F028B3D29F497FFD0CF80
:1027600010924F02CDCF8C3D19F41916CCF3C8CF7F
:102770009FE2980F983090F4815D990B21E030E052
:10278000B90102C0660F771F8A95E2F7CB018095E9
:1027900090914B02892380934B02B2CF8D3D31F44F
:1027A000809149028E7F80934902AACF8E3D21F409
:1027B000809149028D7FF7CF8F3D09F0A1CF8091A5
:1027C00049028B7FF0CF08950E94C4179C0190911D
:1027D0004C0280914D02982B21F0309346022093B9
:1027E000450290914E0280914F02982B21F0309338
:1027F0004402209343028AE492E00E94D81508958F
:1028000086E0EAE4F2E0DF011D928A95E9F7109292
:10281000480210924702109249020895FC018281F9
:1028200081110EC0838181110BC08481811108C088
:1028300091E08581811101C090E0892F8170089518
:1028400081E0FCCFA6E0B0E0E8E2F4E10C94DF1E0A
:1028500086E0EAE4F2E0DE01119601900D928A959D
:10286000E1F710924C0210924D0210924E0210921B
:102870004F028B819C81892B89F080914502909138
:1028800046020E945317AC01909148029923C9F166
:10289000809108018417150608F440C08D819E813F
:1028A000892B91F080914302909144020E9453172A
:1028B000AC0190914702992309F46AC08091040108
:1028C0008417150608F472C0BE016F5F7F4F8AE45B
:1028D00092E00E949B16811105C08AE492E00E945A
:1028E0000E1481110E94E41386E0FE013196AAE4E1
:1028F000B2E001900D928A95E1F72696E3E00C9400
:10290000FB1E209109018AE0289F900111242417C1
:10291000350720F69F5F9093480202C09F3FD1F792
:102920001B81112359F00E949A129FEF11160CF48B
:1029300091E0899F802D112480934C021C811123EA
:1029400059F00E949A129FEF11160CF491E0899FA2
:10295000802D112480934D0280914C02882309F42C
:102960009DCF10914D02112309F498CF0E948C1233
:10297000882351F080934C02812F0E948C1288236F
:1029800029F080934D028ACF81E0F4CF81E0F9CF26
:10299000209105018AE0289F900111242417350712
:1029A00008F092CF9F5F9093470202C09F3FD1F7FC
:1029B0001D81112359F00E94D8129FEF11160CF4BB
:1029C00091E0899F802D112480934E021E81112356
:1029D00059F00E94D8129FEF11160CF491E0899FD4
:1029E000802D112480934F0280914E02882309F498
:1029F0006BCF10914F02112309F466CF0E948C1205
:102A0000882351F080934E02812F0E948C128823DC
:102A100029F080934F0258CF81E0F4CF81E0F9CFC5
:102A20000F931F93CF93DF93C42FD22FFC01858187
:102A30008823C9F0409352020E94C4179093510218
:102A40008093500280E28C0F883040F4C77081E0A0
:102A500001C0880FCA95EAF70E944F04DF91CF9119
:102A60001F910F91089510915202141332C080915A
:102A70005002909151020E945317883C910548F5ED
:102A8000C0E2CD0F1D17B9F080E2810F883040F40D
:102A9000177081E001C0880F1A95EAF70E9456046A
:102AA000C83048F481E09D2F977001C0880F9A9537
:102AB000EAF70E944F04802F0E944604C83070F647
:102AC000D77081E001C0880FDA95EAF70E945604BA
:102AD000C5CF80E28C0F883008F6C77081E001C056
:102AE000880FCA95EAF7F2CF0F93DB0188519C4714
:102AF00087309105A0F5FC01ED54F04E0C94CA1EF0
:102B000006E221EE41EE6AE17CE7CD010E9410155C
:102B100080E00F91089507E225EE45EE6BE17CE73A
:102B2000F4CF06E221EE40EE68E17CE7EECF07E26B
:102B300025EE44EE69E17CE7E8CF06E221EE42EEC5
:102B40006CE17CE7E2CF07E225EE46EE6DE17CE743
:102B5000DCCF08E221E045EE6EE17CE7D6CF1596AA
:102B60008C91882319F010925202D3CF81E0D1CFFB
:102B700090935802809357020895E0915702F09184
:102B80005802309729F00190F081E02D09950895C1
:102B900080E008950E94BD150895E0915702F091DC
:102BA0005802309721F00280F381E02D09950895B5
:102BB000E0915702F0915802309739F022E0DC01A1
:102BC0002C930680F781E02D09950895A3E0B0E0ED
:102BD000ECEEF5E10C94E01E209155023091560286
:102BE00028173907A1F09093560280935502E0917F
:102BF0005702F0915802309751F023E029839B83CC
:102C00008A830084F185E02DCE01019609952396F3
:102C1000E2E00C94FC1EA3E0B0E0E1E1F6E10C94EC
:102C2000E01E209153023091540228173907A1F079
:102C30009093540280935302E0915702F09158020E
:102C4000309751F024E029839B838A830084F185A7
:102C5000E02DCE01019609952396E2E00C94FC1E2E
:102C600040910001509101019A012E5F3F4F485F52
:102C70005F4F80E02417350709F40895F901919119
:102C80009F019923B9F38F5FF5CF882371F02091CD
:102C9000000130910101F9013296285F3F4F919177
:102CA000981729F0E217F307D1F780E0089581E043
:102CB00008959C01FC0132969FEF80E041914617F8
:102CC00051F09F3F19F4411101C0982F8F5F86305A
:102CD000A9F79F3F09F40895290F311D97FD3A95F3
:102CE000F90162830895FC0132960896219126131A
:102CF00003C0DF0111971C92E817F907B9F708958F
:102D0000682F80910001909101010E945916089549
:102D1000682F80910001909101010E94731608951F
:102D2000E0910001F0910101329686E0DF011D92F1
:102D30008A95E9F70895DC01FB0111969C911197A2
:102D40008181981322C012968C911297882319F0D2
:102D5000928189131AC013968C911397882319F0C6
:102D60009381891312C015968C911597882319F0B9
:102D7000958189130AC014969C91992321F081E0D2
:102D80002481291303C080E001C081E0817008958F
:102D900008950E94C816089581110EC081E08093A5
:102DA0000D0160910A0170910B0180910C019091CD
:102DB0000D010E94C916089582E0F1CF83E080934F
:102DC0000D0160910A0170910B0180910C019091AD
:102DD0000D010E94C91608950E94CC16089581E045
:102DE00080930D0160910A0170910B0180910C019B
:102DF00090910D010E94C91608950E94EF16089542
:102E000091E0811101C090E090930C0160910A0162
:102E100070910B0180910C0190910D010E94C916D7
:102E2000089580910C01089580930B0160910A012F
:102E300070910B0180910C0190910D010E94C916B7
:102E4000089580910B01089580930A0160910A0111
:102E500070910B0180910C0190910D010E94C91697
:102E6000089580910A010895089508950E943517E4
:102E70000895089508950E9434170895CF930E94ED
:102E800039170E94D1100E943A17C0E08C2F0E947F
:102E90000210892B31F4CF5FC530C1F780E0CF91AC
:102EA000089581E0FCCFCF93DF93EC010E94C4171B
:102EB0008C1B9D0BDF91CF91089585B7806885BFEE
:102EC00085B7806885BF08951F921FB61F92112491
:102ED0008F939F93AF93BF9380915902811113C039
:102EE0008091780290917902A0917A02B0917B0250
:102EF0004196A11DB11D8093780290937902A09311
:102F00007A02B0937B02BF91AF919F918F911F90F6
:102F10001FBE1F90189580918002843031F10E946D
:102F2000BD021092590288E190E020E40FB6F894B7
:102F3000A895809360000FBE2093600083B7817FC7
:102F4000846083BF83B7816083BF7894889583B79B
:102F50008E7F83BF0FB6F894A8958091600088613A
:102F600080936000109260000FBE08950E94A40636
:102F70000E94C402089582E084BD93E095BD9AEF5B
:102F800097BD80936E0008952FB7F89480917802D2
:102F900090917902A0917A02B0917B022FBF08959F
:102FA0002FB7F894609178027091790280917A023B
:102FB00090917B022FBF089578941F921FB61F92A5
:102FC00011248F939F93AF93BF9380917802909138
:102FD0007902A0917A02B0917B020196A11DB11DE8
:102FE0008093780290937902A0937A02B0937B0247
:102FF000BF91AF919F918F911F901FBE1F90189509
:1030000081E08093E00080E28093D8001092C900B4
:103010008FE19EE40197F1F700C0000087E090EB9C
:10302000DC018093890290938A02A0938B02B09373
:103030008C0288E19CE00FB6F894A895809360001C
:103040000FBE90936000FFCF88E19CE00FB6F8942C
:10305000A895809360000FBE90936000FFCF089505
:103060009B01BA01909180029430E9F48F708093B3
:10307000E9009FEF8091E800915085FD06C085ED45
:103080008A95F1F700009111F5CF8091E80085FF56
:103090000AC050E040E0C9010E942F1A8091E80068
:1030A0008E778093E800089543E050E0BC0182E011
:1030B0000E943018089546E050E0BC0182E00E9472
:1030C00030180895CF93DF93EC010E94111748E068
:1030D00050E0BE0181E00E94301888E0FE01AAE5C0
:1030E000B2E001900D928A95E1F7DF91CF910895BA
:1030F00080917F02811109C00E94BF1B0E941C1C8D
:103100008091E20084608093E200089510927F0233
:1031100008950E94EF1681E00E94001708956091C3
:103120007C0281E0611101C080E00E94DE160895FA
:103130009091800281E0943009F080E060917C02FF
:103140000E94EC16089542E061EC81E00E943B1B76
:1031500042E261EC82E00E943B1B9091800281E0A0
:10316000943009F080E060917C020E94CC160895B2
:1031700080918202833009F461C030F48130D1F152
:10318000823009F49EC008958A3009F48AC08B30D9
:1031900009F46FC0893009F050C0809181028132FA
:1031A00009F04BC08091850290918602029708F049
:1031B00044C08091E800877F8093E8008091E80018
:1031C00082FF37C09091F3008091F200029731F4B2
:1031D0008091F100813011F0863021F48091F1006E
:1031E0000E9414178091E8008B778093E8000E947A
:1031F0006F1B23C080918102813AF9F48091E8002D
:10320000877F8093E8008091850290918602892BC8
:1032100061F468E08AE592E070E00E947E1A809195
:10322000E8008B778093E800089560E090E080E00C
:10323000F3CF809180028111C1CF089580918102E6
:10324000813AD9F78091850290918602892BA9F75E
:103250008091E800877F8093E8008091E80080FFFC
:10326000FCCF0E9411178093F1008091E8008E77C7
:10327000BCCF80918102813201F7809185029091CB
:103280008602892BD1F68091E800877F8093E80041
:103290000E946F1B809183020E9400170E94A40667
:1032A000089580918102813241F68091E800877F04
:1032B0008093E8000E946F1B809184020E94241773
:1032C000089580918102813A09F0B7CF8091E8009A
:1032D000877F8093E8008091E80080FFFCCF0E9408
:1032E0003117C1CF84B7877F84BF0FB6F894A895F4
:1032F00080916000886180936000109260000FBE32
:1033000080E890E00FB6F89480936100909361009C
:103310000FBE0E94FD1608950E94BF1B0E941C1C38
:10332000E2EEF0E080818460808378940E949B1EAE
:1033300008958EE091E00E94B81508958091800272
:10334000853031F480918002853019F00E94B617E3
:1033500008950E948B170E943E17882399F380914D
:103360007E02882379F30E94191A0E94A406EACFEC
:1033700008959A0140918702509188020E94C119D4
:103380000895492F55274330510519F168F441300C
:10339000510509F444C04230510509F445C090E09C
:1033A00080E050E040E025C04132510549F1423211
:1033B0005105A9F784E490E040E452E061157105FD
:1033C000C1F08BE790E045EC51E06130710589F088
:1033D000E6CF99278130910581F0009729F0029777
:1033E000F1F6ECE4F1E002C0E4E7F1E0849190E072
:1033F000AF01F901518340830895E8E5F1E0F6CF8C
:1034000089E090E04AE851E06115710591F389E0A7
:1034100090E043EA51E06130710559F3C0CF82E199
:1034200090E043EB51E0E5CF8BE390E048E751E0DB
:10343000E0CF80E189BD82E189BD09B400FEFDCF06
:103440008091D8008F7D8093D8008091E0008260C9
:103450008093E0008091E00081FDFCCF0895AF9261
:10346000BF92CF92DF92FF920F931F93CF93DF9380
:103470006C01EB018A010E948E1BF82E811123C082
:103480000115110539F0F80180819181C81BD90B14
:10349000C80ED91EB12CA12C2097A9F08091E8006C
:1034A00085FD22C08091E8008E778093E8000115A9
:1034B0001105A1F0F80180819181A80EB91EB18299
:1034C000A08285E0F82E8F2DDF91CF911F910F9173
:1034D000FF90DF90CF90BF90AF9008950E948E1B19
:1034E0008823D1F2F82EEFCFF60181916F018093FE
:1034F000F1002197FFEFAF1ABF0ACECFFC018091F8
:1035000087029091880286179707A0F061157105D0
:1035100029F49091E8009E779093E80090E061157F
:10352000710551F4911108C08091E80082FF34C008
:1035300080E00895BC01F2CF809180028823C1F120
:103540008530C1F18091E80083FD30C08091E800B2
:1035500082FDEACF8091E80080FFE1CF8091F30007
:103560002091F200382F6115710519F028303105CE
:1035700058F091E02830310509F090E02091E80002
:103580002E772093E800CBCF81918093F10061509A
:1035900071092F5F3F4FE7CF80918002882341F070
:1035A000853041F08091E80083FFBECF81E008952F
:1035B00082E0089583E00895FC0180918702909154
:1035C000880286179707A0F06115710529F480918C
:1035D000E8008E778093E80090E06115710551F462
:1035E000911108C08091E80082FF35C080E0089505
:1035F000BC01F2CF809180028823C9F18530C9F1E6
:103600008091E80083FD31C08091E80082FDEACF1F
:103610008091E80080FFE1CF8091F3002091F200DB
:10362000382F6115710519F02830310558F091E0F7
:103630002830310509F090E08091E8008E77809382
:10364000E800CBCF84918093F100319661507109ED
:103650002F5F3F4FE6CF80918002882341F0853075
:1036600041F08091E80083FFBDCF81E0089582E0C2
:10367000089583E00895982F973028F08F708093F5
:10368000E90081E008959093E900242F762F50E01F
:10369000981731F07091EC002091ED005091F000FE
:1036A00021FD02C09F5FE8CF3091EB003E7F309359
:1036B000EB003091ED003D7F3093ED003091EB0059
:1036C00031603093EB007093EC002093ED00509349
:1036D000F0002091EE0027FDE5CF80E00895809175
:1036E000810287FF13C08091E80082FF06C08091AD
:1036F000E8008B778093E80004C0809180028111FC
:10370000F2CF0895809180028823D9F38091E80058
:1037100080FFF8CF8091E8008E77ECCF2091E40015
:103720003091E50095E6A9012091EC00822F81708F
:1037300020FF06C08091E80080FF06C080E0089569
:103740002091E80022FD1AC080918002882389F030
:10375000853089F08091EB0085FD0FC02091E40059
:103760003091E50042175307F9F29150E1F684E0F9
:10377000089582E0089583E0089581E008950E940D
:103780002E1C0E94361CE0EEF0E080818160808378
:10379000E8EDF0E080818F77808319BCA7EDB0E081
:1037A0008C918E7F8C9380818F7E808310927F029C
:1037B00008950F931F93CF93DF930E942E1C0E94B6
:1037C000361CC8EDD0E088818F7788838881806837
:1037D000888388818F7D888319BC10928002109223
:1037E0007C0210927E0210927D0200EE10E0F80141
:1037F00080818B7F808388818160888342E060E064
:1038000080E00E943B1BE1EEF0E080818E7F8083B0
:10381000E2EEF0E080818160808380818860808337
:10382000F80180818E7F8083888180618883DF9129
:10383000CF911F910F910895E8EDF0E080818F7E88
:103840008083E7EDF0E080818160808384E082BF47
:1038500081E080937F020E94D91B0895E8EDF0E09B
:1038600080818E7F80831092E20008951092DA00AA
:103870001092E10008951F920F920FB60F9211243B
:103880002F933F934F935F936F937F938F939F9368
:10389000AF93BF93EF93FF938091E10082FF0BC042
:1038A0008091E20082FF07C08091E1008B7F8093CE
:1038B000E1000E949A1E8091DA0080FF19C0809179
:1038C000D80080FF15C08091DA008E7F8093DA00E7
:1038D0008091D90080FF96C080E189BD82E189BDD9
:1038E00009B400FEFDCF81E0809380020E94781829
:1038F0008091E10080FF19C08091E20080FF15C037
:103900008091E2008E7F8093E2008091E2008061EE
:103910008093E2008091D80080628093D80019BC27
:1039200085E0809380020E948F188091E10084FFDF
:103930002BC08091E20084FF27C080E189BD82E135
:1039400089BD89B5982F917080FFFBCF8091D800F9
:103950008F7D8093D8008091E1008F7E8093E1007D
:103960008091E2008F7E8093E2008091E20081608E
:103970008093E20080917C02882309F449C084E0AE
:10398000809380020E9498188091E10083FF29C0F3
:103990008091E20083FF25C08091E100877F8093C2
:1039A000E10082E08093800210927C028091E1002D
:1039B0008E7F8093E1008091E2008E7F8093E20011
:1039C0008091E20080618093E20042E060E080E06C
:1039D0000E943B1B8091F00088608093F0000E9461
:1039E0008918FF91EF91BF91AF919F918F917F9136
:1039F0006F915F914F913F912F910F900FBE0F905C
:103A00001F90189519BC109280020E94861870CFE2
:103A10008091E30087FD93E090938002B3CF1F92E3
:103A20000F920FB60F9211242F933F934F935F93F2
:103A30006F937F938F939F93AF93BF93CF93DF93B6
:103A4000EF93FF93D091E900DF708091EC00C82FD5
:103A5000C17080FDC0E81092E9008091F000877F7E
:103A60008093F00078940E94531D1092E900809199
:103A7000F00088608093F000CD2BCF70C093E900F8
:103A8000FF91EF91DF91CF91BF91AF919F918F9176
:103A90007F916F915F914F913F912F910F900FBE4A
:103AA0000F901F901895AAE2B0E0E9E5FDE10C94B3
:103AB000DF1E81E892E02091F100FC012193CF010B
:103AC000F2E089389F07B9F70E94B8188091E800A2
:103AD00083FF1EC180918102909182029A3008F08A
:103AE00017C1E92FF0E0E654F04E0C94CA1E80385E
:103AF00099F0823809F00CC1809185028F7087306F
:103B000008F006C18093E9008091EB0085FB8827CF
:103B100080F91092E90006C080917D0290917E02AA
:103B2000911182609091E800977F9093E8008093D4
:103B3000F1001092F1008091E8008E77E5C08823B3
:103B400009F4D3C0823009F0E3C08091830281116F
:103B5000D6C0809185028F702FEF280F263008F095
:103B6000D7C08093E9002091EB0020FFC8C09330BC
:103B700031F48091EB0080628093EB00C0C09091A3
:103B8000EB0090619093EB0021E030E001C0220F48
:103B90008A95EAF72093EA001092EA008091EB0000
:103BA0008860EACF8111B4C0109183021F778091A1
:103BB000E3008078812B8093E3008091E800877F89
:103BC0008093E8000E946F1B8091E80080FFFCCF8B
:103BD0008091E30080688093E30082E0111183E02C
:103BE0008093800295C08058823008F091C0809107
:103BF0008302909184028C3D23E09207A1F583E03B
:103C00008A838AE289834FB7F894DE01139620E015
:103C10003EE051E2E32FF0E050935700E49120FFA3
:103C200003C0E295EF703F5FEF708E2F90E0EA30B7
:103C3000C0F0C7968D939D932F5F243159F74FBFE6
:103C40008091E800877F8093E8006AE270E0CE010F
:103C500001960E947E1A8091E8008B778093E8009D
:103C600057C0C096E7CF6091850270918602AE0181
:103C70004F5F5F4F0E94B919BC01892B09F448C0FE
:103C80009091E800977F9093E80089819A810E9443
:103C9000DC1AE1CF8038E1F58091E800877F8093DE
:103CA000E80080917C028093F10045CF811130C003
:103CB00090918302923060F58091E800877F809335
:103CC000E80090937C020E946F1B80917C02882305
:103CD00011F084E005C08091E30087FDFACF81E018
:103CE000809380020E94A31813C0809183028130C8
:103CF00079F481E0933009F080E080937E021092A5
:103D0000E9008091E800877F8093E8000E946F1BA4
:103D10008091E80083FF0AC08091E800877F80934C
:103D2000E8008091EB0080628093EB00AA96E3E0CC
:103D30000C94FB1E0895CF93809180028823A1F0FC
:103D4000C091E900CF709091EC00892F817090FDB7
:103D500080E8C82B1092E9008091E80083FD0E9462
:103D6000531DCF70C093E900CF91089597FB072EA4
:103D700016F4009407D077FD09D00E94071F07FCB6
:103D800005D03EF4909581959F4F0895709561956B
:103D90007F4F0895EE0FFF1F0590F491E02D0994D9
:103DA0002F923F924F925F926F927F928F929F924B
:103DB000AF92BF92CF92DF92EF92FF920F931F9339
:103DC000CF93DF93CDB7DEB7CA1BDB0B0FB6F894EA
:103DD000DEBF0FBECDBF09942A88398848885F842A
:103DE0006E847D848C849B84AA84B984C884DF809B
:103DF000EE80FD800C811B81AA81B981CE0FD11D7F
:103E00000FB6F894DEBF0FBECDBFED010895AA1B1B
:103E1000BB1B51E107C0AA1FBB1FA617B70710F0B5
:103E2000A61BB70B881F991F5A95A9F780959095E7
:103E3000BC01CD010895FB01DC0104C08D9101900E
:103E4000801921F441505040C8F7881B990B089500
:103E5000FB01DC0102C001900D9241505040D8F7A7
:103E60000895F999FECF92BD81BDF89A992780B542
:103E70000895A8E1B0E042E050E00C94751FDC0129
:103E8000A40FB51F4150504048F0CB01840F951F3F
:103E90002E910E94501F41505040D0F70895262F78
:103EA000F999FECF92BD81BDF89A019700B4021630
:103EB00039F01FBA20BD0FB6F894FA9AF99A0FBEDE
:103EC00008950396272F0E94501F0E944F1F252FF1
:103ED0000E94501F242F0C94501F0196272F0E94E0
:103EE000501F0C944F1FDC01CB01FC01F999FECF50
:103EF00006C0F2BDE1BDF89A319600B40D92415072
:103F00005040B8F70895F894FFCF9E049E04DC0457
:103F1000DC0440055C05CD04CD046105D205E10556
:103F2000E10508127C121012DA11DE111412E211EE
:103F300018122412EE117512F2112812F6112C1219
:103F40005412FA1130125B12001236123E12E611B0
:103F50001C12EA11201204123A124A12641273124D
:103F6000D4110C1283129115971580158B159D1580
:103F7000A315A915771D9F1D881E9F1D881ED21D84
:083F8000F31D881E4A1E561EA7
:103F88002002280850011E0A140100000100211710
:103F980062182F185B185418E200E900EA00B5000F
:103FA800B600B700CD008301CC008A0192019401CC
:103FB8002102230224022502260227022A02B30034
:103FC800B4006F0070009F01CB019F02A0028182A4
:103FD80083E200E900EA00B500B600B700CD00832F
:103FE80001CC008A019201940121022302240225B6
:103FF80002260227022A02B300B4006F0070009F55
:1040080001CB019F02A002818283969794343536B2
:10401800669567F0C63031373332F1F4F5F6930020
:00000001FF
